{"project/contracts/IntentLedger.sol":{"IntentLedger":{"abi":[{"anonymous":false,"inputs":[{"indexed":true,"internalType":"uint256","name":"workflowId","type":"uint256"},{"indexed":false,"internalType":"string","name":"stepId","type":"string"},{"indexed":false,"internalType":"string","name":"agentName","type":"string"},{"indexed":false,"internalType":"enum IntentLedger.StepStatus","name":"status","type":"uint8"},{"indexed":false,"internalType":"bytes32","name":"outputHash","type":"bytes32"},{"indexed":false,"internalType":"uint64","name":"timestamp","type":"uint64"}],"name":"StepRecorded","type":"event"},{"anonymous":false,"inputs":[{"indexed":true,"internalType":"uint256","name":"workflowId","type":"uint256"},{"indexed":true,"internalType":"address","name":"creator","type":"address"},{"indexed":false,"internalType":"bytes32","name":"metadataHash","type":"bytes32"},{"indexed":false,"internalType":"uint64","name":"timestamp","type":"uint64"}],"name":"WorkflowCreated","type":"event"},{"anonymous":false,"inputs":[{"indexed":true,"internalType":"uint256","name":"workflowId","type":"uint256"},{"indexed":false,"internalType":"enum IntentLedger.WorkflowStatus","name":"status","type":"uint8"},{"indexed":false,"internalType":"uint64","name":"timestamp","type":"uint64"}],"name":"WorkflowFinalized","type":"event"},{"inputs":[{"internalType":"bytes32","name":"metadataHash","type":"bytes32"}],"name":"createWorkflow","outputs":[{"internalType":"uint256","name":"workflowId","type":"uint256"}],"stateMutability":"nonpayable","type":"function"},{"inputs":[{"internalType":"uint256","name":"workflowId","type":"uint256"},{"internalType":"enum IntentLedger.WorkflowStatus","name":"finalStatus","type":"uint8"}],"name":"finalizeWorkflow","outputs":[],"stateMutability":"nonpayable","type":"function"},{"inputs":[{"internalType":"uint256","name":"workflowId","type":"uint256"}],"name":"getStepLogs","outputs":[{"components":[{"internalType":"string","name":"stepId","type":"string"},{"internalType":"string","name":"agentName","type":"string"},{"internalType":"enum IntentLedger.StepStatus","name":"status","type":"uint8"},{"internalType":"bytes32","name":"outputHash","type":"bytes32"},{"internalType":"uint64","name":"timestamp","type":"uint64"}],"internalType":"struct IntentLedger.StepLog[]","name":"","type":"tuple[]"}],"stateMutability":"view","type":"function"},{"inputs":[{"internalType":"uint256","name":"workflowId","type":"uint256"},{"internalType":"string","name":"stepId","type":"string"},{"internalType":"string","name":"agentName","type":"string"},{"internalType":"enum IntentLedger.StepStatus","name":"status","type":"uint8"},{"internalType":"bytes32","name":"outputHash","type":"bytes32"}],"name":"recordStep","outputs":[],"stateMutability":"nonpayable","type":"function"},{"inputs":[{"internalType":"uint256","name":"","type":"uint256"}],"name":"workflows","outputs":[{"internalType":"address","name":"creator","type":"address"},{"internalType":"bytes32","name":"metadataHash","type":"bytes32"},{"internalType":"enum IntentLedger.WorkflowStatus","name":"status","type":"uint8"},{"internalType":"uint64","name":"createdAt","type":"uint64"},{"internalType":"uint64","name":"updatedAt","type":"uint64"}],"stateMutability":"view","type":"function"}],"evm":{"bytecode":{"linkReferences":{},"object":"608060405260015f55348015610013575f80fd5b50611599806100215f395ff3fe608060405234801561000f575f80fd5b5060043610610055575f3560e01c80633ed1ddd71461005957806396a7bfcf14610075578063a831d4e9146100a9578063afe3aed2146100d9578063f9851a5e14610109575b5f80fd5b610073600480360381019061006e9190610a16565b610125565b005b61008f600480360381019061008a9190610a54565b6102da565b6040516100a0959493929190610b6b565b60405180910390f35b6100c360048036038101906100be9190610a54565b61035f565b6040516100d09190610ddf565b60405180910390f35b6100f360048036038101906100ee9190610e29565b610560565b6040516101009190610e63565b60405180910390f35b610123600480360381019061011e9190610f00565b610721565b005b5f60015f8481526020019081526020015f2090506001600381111561014d5761014c610ad6565b5b816002015f9054906101000a900460ff1660038111156101705761016f610ad6565b5b146101b0576040517f08c379a00000000000000000000000000000000000000000000000000000000081526004016101a790611011565b60405180910390fd5b600260038111156101c4576101c3610ad6565b5b8260038111156101d7576101d6610ad6565b5b148061020657506003808111156101f1576101f0610ad6565b5b82600381111561020457610203610ad6565b5b145b610245576040517f08c379a000000000000000000000000000000000000000000000000000000000815260040161023c90611079565b60405180910390fd5b81816002015f6101000a81548160ff0219169083600381111561026b5761026a610ad6565b5b0217905550428160020160096101000a81548167ffffffffffffffff021916908367ffffffffffffffff160217905550827f53271714ab9faea47c5036b570bbf2088c6c31ad10e6383a2415043143f7bc6583426040516102cd929190611097565b60405180910390a2505050565b6001602052805f5260405f205f91509050805f015f9054906101000a900473ffffffffffffffffffffffffffffffffffffffff1690806001015490806002015f9054906101000a900460ff16908060020160019054906101000a900467ffffffffffffffff16908060020160099054906101000a900467ffffffffffffffff16905085565b606060025f8381526020019081526020015f20805480602002602001604051908101604052809291908181526020015f905b82821015610555578382905f5260205f2090600502016040518060a00160405290815f820180546103c1906110eb565b80601f01602080910402602001604051908101604052809291908181526020018280546103ed906110eb565b80156104385780601f1061040f57610100808354040283529160200191610438565b820191905f5260205f20905b81548152906001019060200180831161041b57829003601f168201915b50505050508152602001600182018054610451906110eb565b80601f016020809104026020016040519081016040528092919081815260200182805461047d906110eb565b80156104c85780601f1061049f576101008083540402835291602001916104c8565b820191905f5260205f20905b8154815290600101906020018083116104ab57829003601f168201915b50505050508152602001600282015f9054906101000a900460ff1660018111156104f5576104f4610ad6565b5b600181111561050757610506610ad6565b5b815260200160038201548152602001600482015f9054906101000a900467ffffffffffffffff1667ffffffffffffffff1667ffffffffffffffff168152505081526020019060010190610391565b505050509050919050565b5f805f81548092919061057290611148565b9190505590506040518060a001604052803373ffffffffffffffffffffffffffffffffffffffff168152602001838152602001600160038111156105b9576105b8610ad6565b5b81526020014267ffffffffffffffff1681526020014267ffffffffffffffff1681525060015f8381526020019081526020015f205f820151815f015f6101000a81548173ffffffffffffffffffffffffffffffffffffffff021916908373ffffffffffffffffffffffffffffffffffffffff160217905550602082015181600101556040820151816002015f6101000a81548160ff0219169083600381111561066557610664610ad6565b5b021790555060608201518160020160016101000a81548167ffffffffffffffff021916908367ffffffffffffffff16021790555060808201518160020160096101000a81548167ffffffffffffffff021916908367ffffffffffffffff1602179055509050503373ffffffffffffffffffffffffffffffffffffffff16817f13698af37cebd082e029181310625f4d20aa6b92123760ee2575917048f1990b844260405161071492919061118f565b60405180910390a3919050565b5f60015f8981526020019081526020015f2090506001600381111561074957610748610ad6565b5b816002015f9054906101000a900460ff16600381111561076c5761076b610ad6565b5b146107ac576040517f08c379a00000000000000000000000000000000000000000000000000000000081526004016107a390611200565b60405180910390fd5b60025f8981526020019081526020015f206040518060a0016040528089898080601f0160208091040260200160405190810160405280939291908181526020018383808284375f81840152601f19601f82011690508083019250505050505050815260200187878080601f0160208091040260200160405190810160405280939291908181526020018383808284375f81840152601f19601f82011690508083019250505050505050815260200185600181111561086d5761086c610ad6565b5b81526020018481526020014267ffffffffffffffff16815250908060018154018082558091505060019003905f5260205f2090600502015f909190919091505f820151815f0190816108bf91906113e8565b5060208201518160010190816108d591906113e8565b506040820151816002015f6101000a81548160ff02191690836001811115610900576108ff610ad6565b5b0217905550606082015181600301556080820151816004015f6101000a81548167ffffffffffffffff021916908367ffffffffffffffff1602179055505050428160020160096101000a81548167ffffffffffffffff021916908367ffffffffffffffff160217905550877f5950f80ffd56566e78c207d6a4ad36318342847a4303167fd0212b0d94d528d5888888888888426040516109a69796959493929190611500565b60405180910390a25050505050505050565b5f80fd5b5f80fd5b5f819050919050565b6109d2816109c0565b81146109dc575f80fd5b50565b5f813590506109ed816109c9565b92915050565b600481106109ff575f80fd5b50565b5f81359050610a10816109f3565b92915050565b5f8060408385031215610a2c57610a2b6109b8565b5b5f610a39858286016109df565b9250506020610a4a85828601610a02565b9150509250929050565b5f60208284031215610a6957610a686109b8565b5b5f610a76848285016109df565b91505092915050565b5f73ffffffffffffffffffffffffffffffffffffffff82169050919050565b5f610aa882610a7f565b9050919050565b610ab881610a9e565b82525050565b5f819050919050565b610ad081610abe565b82525050565b7f4e487b71000000000000000000000000000000000000000000000000000000005f52602160045260245ffd5b60048110610b1457610b13610ad6565b5b50565b5f819050610b2482610b03565b919050565b5f610b3382610b17565b9050919050565b610b4381610b29565b82525050565b5f67ffffffffffffffff82169050919050565b610b6581610b49565b82525050565b5f60a082019050610b7e5f830188610aaf565b610b8b6020830187610ac7565b610b986040830186610b3a565b610ba56060830185610b5c565b610bb26080830184610b5c565b9695505050505050565b5f81519050919050565b5f82825260208201905092915050565b5f819050602082019050919050565b5f81519050919050565b5f82825260208201905092915050565b5f5b83811015610c1c578082015181840152602081019050610c01565b5f8484015250505050565b5f601f19601f8301169050919050565b5f610c4182610be5565b610c4b8185610bef565b9350610c5b818560208601610bff565b610c6481610c27565b840191505092915050565b60028110610c8057610c7f610ad6565b5b50565b5f819050610c9082610c6f565b919050565b5f610c9f82610c83565b9050919050565b610caf81610c95565b82525050565b610cbe81610abe565b82525050565b610ccd81610b49565b82525050565b5f60a083015f8301518482035f860152610ced8282610c37565b91505060208301518482036020860152610d078282610c37565b9150506040830151610d1c6040860182610ca6565b506060830151610d2f6060860182610cb5565b506080830151610d426080860182610cc4565b508091505092915050565b5f610d588383610cd3565b905092915050565b5f602082019050919050565b5f610d7682610bbc565b610d808185610bc6565b935083602082028501610d9285610bd6565b805f5b85811015610dcd5784840389528151610dae8582610d4d565b9450610db983610d60565b925060208a01995050600181019050610d95565b50829750879550505050505092915050565b5f6020820190508181035f830152610df78184610d6c565b905092915050565b610e0881610abe565b8114610e12575f80fd5b50565b5f81359050610e2381610dff565b92915050565b5f60208284031215610e3e57610e3d6109b8565b5b5f610e4b84828501610e15565b91505092915050565b610e5d816109c0565b82525050565b5f602082019050610e765f830184610e54565b92915050565b5f80fd5b5f80fd5b5f80fd5b5f8083601f840112610e9d57610e9c610e7c565b5b8235905067ffffffffffffffff811115610eba57610eb9610e80565b5b602083019150836001820283011115610ed657610ed5610e84565b5b9250929050565b60028110610ee9575f80fd5b50565b5f81359050610efa81610edd565b92915050565b5f805f805f805f60a0888a031215610f1b57610f1a6109b8565b5b5f610f288a828b016109df565b975050602088013567ffffffffffffffff811115610f4957610f486109bc565b5b610f558a828b01610e88565b9650965050604088013567ffffffffffffffff811115610f7857610f776109bc565b5b610f848a828b01610e88565b94509450506060610f978a828b01610eec565b9250506080610fa88a828b01610e15565b91505092959891949750929550565b5f82825260208201905092915050565b7f776f726b666c6f7720636c6f73656400000000000000000000000000000000005f82015250565b5f610ffb600f83610fb7565b915061100682610fc7565b602082019050919050565b5f6020820190508181035f83015261102881610fef565b9050919050565b7f696e76616c69642066696e616c207374617475730000000000000000000000005f82015250565b5f611063601483610fb7565b915061106e8261102f565b602082019050919050565b5f6020820190508181035f83015261109081611057565b9050919050565b5f6040820190506110aa5f830185610b3a565b6110b76020830184610b5c565b9392505050565b7f4e487b71000000000000000000000000000000000000000000000000000000005f52602260045260245ffd5b5f600282049050600182168061110257607f821691505b602082108103611115576111146110be565b5b50919050565b7f4e487b71000000000000000000000000000000000000000000000000000000005f52601160045260245ffd5b5f611152826109c0565b91507fffffffffffffffffffffffffffffffffffffffffffffffffffffffffffffffff82036111845761118361111b565b5b600182019050919050565b5f6040820190506111a25f830185610ac7565b6111af6020830184610b5c565b9392505050565b7f776f726b666c6f77206e6f742072756e6e696e670000000000000000000000005f82015250565b5f6111ea601483610fb7565b91506111f5826111b6565b602082019050919050565b5f6020820190508181035f830152611217816111de565b9050919050565b7f4e487b71000000000000000000000000000000000000000000000000000000005f52604160045260245ffd5b5f819050815f5260205f209050919050565b5f6020601f8301049050919050565b5f82821b905092915050565b5f600883026112a77fffffffffffffffffffffffffffffffffffffffffffffffffffffffffffffffff8261126c565b6112b1868361126c565b95508019841693508086168417925050509392505050565b5f819050919050565b5f6112ec6112e76112e2846109c0565b6112c9565b6109c0565b9050919050565b5f819050919050565b611305836112d2565b611319611311826112f3565b848454611278565b825550505050565b5f90565b61132d611321565b6113388184846112fc565b505050565b5b8181101561135b576113505f82611325565b60018101905061133e565b5050565b601f8211156113a0576113718161124b565b61137a8461125d565b81016020851015611389578190505b61139d6113958561125d565b83018261133d565b50505b505050565b5f82821c905092915050565b5f6113c05f19846008026113a5565b1980831691505092915050565b5f6113d883836113b1565b9150826002028217905092915050565b6113f182610be5565b67ffffffffffffffff81111561140a5761140961121e565b5b61141482546110eb565b61141f82828561135f565b5f60209050601f831160018114611450575f841561143e578287015190505b61144885826113cd565b8655506114af565b601f19841661145e8661124b565b5f5b8281101561148557848901518255600182019150602085019450602081019050611460565b868310156114a2578489015161149e601f8916826113b1565b8355505b6001600288020188555050505b505050505050565b828183375f83830152505050565b5f6114d08385610fb7565b93506114dd8385846114b7565b6114e683610c27565b840190509392505050565b6114fa81610c95565b82525050565b5f60a0820190508181035f83015261151981898b6114c5565b9050818103602083015261152e8187896114c5565b905061153d60408301866114f1565b61154a6060830185610ac7565b6115576080830184610b5c565b9897505050505050505056fea26469706673582212204bbc98a43ed9b231a8cae27e2817719a592c57cac7f9fb2614aaabb16111984e64736f6c63430008140033","opcodes":"PUSH1 0x80 PUSH1 0x40 MSTORE PUSH1 0x1 PUSH0 SSTORE CALLVALUE DUP1 ISZERO PUSH2 0x13 JUMPI PUSH0 DUP1 REVERT JUMPDEST POP PUSH2 0x1599 DUP1 PUSH2 0x21 PUSH0 CODECOPY PUSH0 RETURN INVALID PUSH1 0x80 PUSH1 0x40 MSTORE CALLVALUE DUP1 ISZERO PUSH2 0xF JUMPI PUSH0 DUP1 REVERT JUMPDEST POP PUSH1 0x4 CALLDATASIZE LT PUSH2 0x55 JUMPI PUSH0 CALLDATALOAD PUSH1 0xE0 SHR DUP1 PUSH4 0x3ED1DDD7 EQ PUSH2 0x59 JUMPI DUP1 PUSH4 0x96A7BFCF EQ PUSH2 0x75 JUMPI DUP1 PUSH4 0xA831D4E9 EQ PUSH2 0xA9 JUMPI DUP1 PUSH4 0xAFE3AED2 EQ PUSH2 0xD9 JUMPI DUP1 PUSH4 0xF9851A5E EQ PUSH2 0x109 JUMPI JUMPDEST PUSH0 DUP1 REVERT JUMPDEST PUSH2 0x73 PUSH1 0x4 DUP1 CALLDATASIZE SUB DUP2 ADD SWAP1 PUSH2 0x6E SWAP2 SWAP1 PUSH2 0xA16 JUMP JUMPDEST PUSH2 0x125 JUMP JUMPDEST STOP JUMPDEST PUSH2 0x8F PUSH1 0x4 DUP1 CALLDATASIZE SUB DUP2 ADD SWAP1 PUSH2 0x8A SWAP2 SWAP1 PUSH2 0xA54 JUMP JUMPDEST PUSH2 0x2DA JUMP JUMPDEST PUSH1 0x40 MLOAD PUSH2 0xA0 SWAP6 SWAP5 SWAP4 SWAP3 SWAP2 SWAP1 PUSH2 0xB6B JUMP JUMPDEST PUSH1 0x40 MLOAD DUP1 SWAP2 SUB SWAP1 RETURN JUMPDEST PUSH2 0xC3 PUSH1 0x4 DUP1 CALLDATASIZE SUB DUP2 ADD SWAP1 PUSH2 0xBE SWAP2 SWAP1 PUSH2 0xA54 JUMP JUMPDEST PUSH2 0x35F JUMP JUMPDEST PUSH1 0x40 MLOAD PUSH2 0xD0 SWAP2 SWAP1 PUSH2 0xDDF JUMP JUMPDEST PUSH1 0x40 MLOAD DUP1 SWAP2 SUB SWAP1 RETURN JUMPDEST PUSH2 0xF3 PUSH1 0x4 DUP1 CALLDATASIZE SUB DUP2 ADD SWAP1 PUSH2 0xEE SWAP2 SWAP1 PUSH2 0xE29 JUMP JUMPDEST PUSH2 0x560 JUMP JUMPDEST PUSH1 0x40 MLOAD PUSH2 0x100 SWAP2 SWAP1 PUSH2 0xE63 JUMP JUMPDEST PUSH1 0x40 MLOAD DUP1 SWAP2 SUB SWAP1 RETURN JUMPDEST PUSH2 0x123 PUSH1 0x4 DUP1 CALLDATASIZE SUB DUP2 ADD SWAP1 PUSH2 0x11E SWAP2 SWAP1 PUSH2 0xF00 JUMP JUMPDEST PUSH2 0x721 JUMP JUMPDEST STOP JUMPDEST PUSH0 PUSH1 0x1 PUSH0 DUP5 DUP2 MSTORE PUSH1 0x20 ADD SWAP1 DUP2 MSTORE PUSH1 0x20 ADD PUSH0 KECCAK256 SWAP1 POP PUSH1 0x1 PUSH1 0x3 DUP2 GT ISZERO PUSH2 0x14D JUMPI PUSH2 0x14C PUSH2 0xAD6 JUMP JUMPDEST JUMPDEST DUP2 PUSH1 0x2 ADD PUSH0 SWAP1 SLOAD SWAP1 PUSH2 0x100 EXP SWAP1 DIV PUSH1 0xFF AND PUSH1 0x3 DUP2 GT ISZERO PUSH2 0x170 JUMPI PUSH2 0x16F PUSH2 0xAD6 JUMP JUMPDEST JUMPDEST EQ PUSH2 0x1B0 JUMPI PUSH1 0x40 MLOAD PUSH32 0x8C379A000000000000000000000000000000000000000000000000000000000 DUP2 MSTORE PUSH1 0x4 ADD PUSH2 0x1A7 SWAP1 PUSH2 0x1011 JUMP JUMPDEST PUSH1 0x40 MLOAD DUP1 SWAP2 SUB SWAP1 REVERT JUMPDEST PUSH1 0x2 PUSH1 0x3 DUP2 GT ISZERO PUSH2 0x1C4 JUMPI PUSH2 0x1C3 PUSH2 0xAD6 JUMP JUMPDEST JUMPDEST DUP3 PUSH1 0x3 DUP2 GT ISZERO PUSH2 0x1D7 JUMPI PUSH2 0x1D6 PUSH2 0xAD6 JUMP JUMPDEST JUMPDEST EQ DUP1 PUSH2 0x206 JUMPI POP PUSH1 0x3 DUP1 DUP2 GT ISZERO PUSH2 0x1F1 JUMPI PUSH2 0x1F0 PUSH2 0xAD6 JUMP JUMPDEST JUMPDEST DUP3 PUSH1 0x3 DUP2 GT ISZERO PUSH2 0x204 JUMPI PUSH2 0x203 PUSH2 0xAD6 JUMP JUMPDEST JUMPDEST EQ JUMPDEST PUSH2 0x245 JUMPI PUSH1 0x40 MLOAD PUSH32 0x8C379A000000000000000000000000000000000000000000000000000000000 DUP2 MSTORE PUSH1 0x4 ADD PUSH2 0x23C SWAP1 PUSH2 0x1079 JUMP JUMPDEST PUSH1 0x40 MLOAD DUP1 SWAP2 SUB SWAP1 REVERT JUMPDEST DUP2 DUP2 PUSH1 0x2 ADD PUSH0 PUSH2 0x100 EXP DUP2 SLOAD DUP2 PUSH1 0xFF MUL NOT AND SWAP1 DUP4 PUSH1 0x3 DUP2 GT ISZERO PUSH2 0x26B JUMPI PUSH2 0x26A PUSH2 0xAD6 JUMP JUMPDEST JUMPDEST MUL OR SWAP1 SSTORE POP TIMESTAMP DUP2 PUSH1 0x2 ADD PUSH1 0x9 PUSH2 0x100 EXP DUP2 SLOAD DUP2 PUSH8 0xFFFFFFFFFFFFFFFF MUL NOT AND SWAP1 DUP4 PUSH8 0xFFFFFFFFFFFFFFFF AND MUL OR SWAP1 SSTORE POP DUP3 PUSH32 0x53271714AB9FAEA47C5036B570BBF2088C6C31AD10E6383A2415043143F7BC65 DUP4 TIMESTAMP PUSH1 0x40 MLOAD PUSH2 0x2CD SWAP3 SWAP2 SWAP1 PUSH2 0x1097 JUMP JUMPDEST PUSH1 0x40 MLOAD DUP1 SWAP2 SUB SWAP1 LOG2 POP POP POP JUMP JUMPDEST PUSH1 0x1 PUSH1 0x20 MSTORE DUP1 PUSH0 MSTORE PUSH1 0x40 PUSH0 KECCAK256 PUSH0 SWAP2 POP SWAP1 POP DUP1 PUSH0 ADD PUSH0 SWAP1 SLOAD SWAP1 PUSH2 0x100 EXP SWAP1 DIV PUSH20 0xFFFFFFFFFFFFFFFFFFFFFFFFFFFFFFFFFFFFFFFF AND SWAP1 DUP1 PUSH1 0x1 ADD SLOAD SWAP1 DUP1 PUSH1 0x2 ADD PUSH0 SWAP1 SLOAD SWAP1 PUSH2 0x100 EXP SWAP1 DIV PUSH1 0xFF AND SWAP1 DUP1 PUSH1 0x2 ADD PUSH1 0x1 SWAP1 SLOAD SWAP1 PUSH2 0x100 EXP SWAP1 DIV PUSH8 0xFFFFFFFFFFFFFFFF AND SWAP1 DUP1 PUSH1 0x2 ADD PUSH1 0x9 SWAP1 SLOAD SWAP1 PUSH2 0x100 EXP SWAP1 DIV PUSH8 0xFFFFFFFFFFFFFFFF AND SWAP1 POP DUP6 JUMP JUMPDEST PUSH1 0x60 PUSH1 0x2 PUSH0 DUP4 DUP2 MSTORE PUSH1 0x20 ADD SWAP1 DUP2 MSTORE PUSH1 0x20 ADD PUSH0 KECCAK256 DUP1 SLOAD DUP1 PUSH1 0x20 MUL PUSH1 0x20 ADD PUSH1 0x40 MLOAD SWAP1 DUP2 ADD PUSH1 0x40 MSTORE DUP1 SWAP3 SWAP2 SWAP1 DUP2 DUP2 MSTORE PUSH1 0x20 ADD PUSH0 SWAP1 JUMPDEST DUP3 DUP3 LT ISZERO PUSH2 0x555 JUMPI DUP4 DUP3 SWAP1 PUSH0 MSTORE PUSH1 0x20 PUSH0 KECCAK256 SWAP1 PUSH1 0x5 MUL ADD PUSH1 0x40 MLOAD DUP1 PUSH1 0xA0 ADD PUSH1 0x40 MSTORE SWAP1 DUP2 PUSH0 DUP3 ADD DUP1 SLOAD PUSH2 0x3C1 SWAP1 PUSH2 0x10EB JUMP JUMPDEST DUP1 PUSH1 0x1F ADD PUSH1 0x20 DUP1 SWAP2 DIV MUL PUSH1 0x20 ADD PUSH1 0x40 MLOAD SWAP1 DUP2 ADD PUSH1 0x40 MSTORE DUP1 SWAP3 SWAP2 SWAP1 DUP2 DUP2 MSTORE PUSH1 0x20 ADD DUP3 DUP1 SLOAD PUSH2 0x3ED SWAP1 PUSH2 0x10EB JUMP JUMPDEST DUP1 ISZERO PUSH2 0x438 JUMPI DUP1 PUSH1 0x1F LT PUSH2 0x40F JUMPI PUSH2 0x100 DUP1 DUP4 SLOAD DIV MUL DUP4 MSTORE SWAP2 PUSH1 0x20 ADD SWAP2 PUSH2 0x438 JUMP JUMPDEST DUP3 ADD SWAP2 SWAP1 PUSH0 MSTORE PUSH1 0x20 PUSH0 KECCAK256 SWAP1 JUMPDEST DUP2 SLOAD DUP2 MSTORE SWAP1 PUSH1 0x1 ADD SWAP1 PUSH1 0x20 ADD DUP1 DUP4 GT PUSH2 0x41B JUMPI DUP3 SWAP1 SUB PUSH1 0x1F AND DUP3 ADD SWAP2 JUMPDEST POP POP POP POP POP DUP2 MSTORE PUSH1 0x20 ADD PUSH1 0x1 DUP3 ADD DUP1 SLOAD PUSH2 0x451 SWAP1 PUSH2 0x10EB JUMP JUMPDEST DUP1 PUSH1 0x1F ADD PUSH1 0x20 DUP1 SWAP2 DIV MUL PUSH1 0x20 ADD PUSH1 0x40 MLOAD SWAP1 DUP2 ADD PUSH1 0x40 MSTORE DUP1 SWAP3 SWAP2 SWAP1 DUP2 DUP2 MSTORE PUSH1 0x20 ADD DUP3 DUP1 SLOAD PUSH2 0x47D SWAP1 PUSH2 0x10EB JUMP JUMPDEST DUP1 ISZERO PUSH2 0x4C8 JUMPI DUP1 PUSH1 0x1F LT PUSH2 0x49F JUMPI PUSH2 0x100 DUP1 DUP4 SLOAD DIV MUL DUP4 MSTORE SWAP2 PUSH1 0x20 ADD SWAP2 PUSH2 0x4C8 JUMP JUMPDEST DUP3 ADD SWAP2 SWAP1 PUSH0 MSTORE PUSH1 0x20 PUSH0 KECCAK256 SWAP1 JUMPDEST DUP2 SLOAD DUP2 MSTORE SWAP1 PUSH1 0x1 ADD SWAP1 PUSH1 0x20 ADD DUP1 DUP4 GT PUSH2 0x4AB JUMPI DUP3 SWAP1 SUB PUSH1 0x1F AND DUP3 ADD SWAP2 JUMPDEST POP POP POP POP POP DUP2 MSTORE PUSH1 0x20 ADD PUSH1 0x2 DUP3 ADD PUSH0 SWAP1 SLOAD SWAP1 PUSH2 0x100 EXP SWAP1 DIV PUSH1 0xFF AND PUSH1 0x1 DUP2 GT ISZERO PUSH2 0x4F5 JUMPI PUSH2 0x4F4 PUSH2 0xAD6 JUMP JUMPDEST JUMPDEST PUSH1 0x1 DUP2 GT ISZERO PUSH2 0x507 JUMPI PUSH2 0x506 PUSH2 0xAD6 JUMP JUMPDEST JUMPDEST DUP2 MSTORE PUSH1 0x20 ADD PUSH1 0x3 DUP3 ADD SLOAD DUP2 MSTORE PUSH1 0x20 ADD PUSH1 0x4 DUP3 ADD PUSH0 SWAP1 SLOAD SWAP1 PUSH2 0x100 EXP SWAP1 DIV PUSH8 0xFFFFFFFFFFFFFFFF AND PUSH8 0xFFFFFFFFFFFFFFFF AND PUSH8 0xFFFFFFFFFFFFFFFF AND DUP2 MSTORE POP POP DUP2 MSTORE PUSH1 0x20 ADD SWAP1 PUSH1 0x1 ADD SWAP1 PUSH2 0x391 JUMP JUMPDEST POP POP POP POP SWAP1 POP SWAP2 SWAP1 POP JUMP JUMPDEST PUSH0 DUP1 PUSH0 DUP2 SLOAD DUP1 SWAP3 SWAP2 SWAP1 PUSH2 0x572 SWAP1 PUSH2 0x1148 JUMP JUMPDEST SWAP2 SWAP1 POP SSTORE SWAP1 POP PUSH1 0x40 MLOAD DUP1 PUSH1 0xA0 ADD PUSH1 0x40 MSTORE DUP1 CALLER PUSH20 0xFFFFFFFFFFFFFFFFFFFFFFFFFFFFFFFFFFFFFFFF AND DUP2 MSTORE PUSH1 0x20 ADD DUP4 DUP2 MSTORE PUSH1 0x20 ADD PUSH1 0x1 PUSH1 0x3 DUP2 GT ISZERO PUSH2 0x5B9 JUMPI PUSH2 0x5B8 PUSH2 0xAD6 JUMP JUMPDEST JUMPDEST DUP2 MSTORE PUSH1 0x20 ADD TIMESTAMP PUSH8 0xFFFFFFFFFFFFFFFF AND DUP2 MSTORE PUSH1 0x20 ADD TIMESTAMP PUSH8 0xFFFFFFFFFFFFFFFF AND DUP2 MSTORE POP PUSH1 0x1 PUSH0 DUP4 DUP2 MSTORE PUSH1 0x20 ADD SWAP1 DUP2 MSTORE PUSH1 0x20 ADD PUSH0 KECCAK256 PUSH0 DUP3 ADD MLOAD DUP2 PUSH0 ADD PUSH0 PUSH2 0x100 EXP DUP2 SLOAD DUP2 PUSH20 0xFFFFFFFFFFFFFFFFFFFFFFFFFFFFFFFFFFFFFFFF MUL NOT AND SWAP1 DUP4 PUSH20 0xFFFFFFFFFFFFFFFFFFFFFFFFFFFFFFFFFFFFFFFF AND MUL OR SWAP1 SSTORE POP PUSH1 0x20 DUP3 ADD MLOAD DUP2 PUSH1 0x1 ADD SSTORE PUSH1 0x40 DUP3 ADD MLOAD DUP2 PUSH1 0x2 ADD PUSH0 PUSH2 0x100 EXP DUP2 SLOAD DUP2 PUSH1 0xFF MUL NOT AND SWAP1 DUP4 PUSH1 0x3 DUP2 GT ISZERO PUSH2 0x665 JUMPI PUSH2 0x664 PUSH2 0xAD6 JUMP JUMPDEST JUMPDEST MUL OR SWAP1 SSTORE POP PUSH1 0x60 DUP3 ADD MLOAD DUP2 PUSH1 0x2 ADD PUSH1 0x1 PUSH2 0x100 EXP DUP2 SLOAD DUP2 PUSH8 0xFFFFFFFFFFFFFFFF MUL NOT AND SWAP1 DUP4 PUSH8 0xFFFFFFFFFFFFFFFF AND MUL OR SWAP1 SSTORE POP PUSH1 0x80 DUP3 ADD MLOAD DUP2 PUSH1 0x2 ADD PUSH1 0x9 PUSH2 0x100 EXP DUP2 SLOAD DUP2 PUSH8 0xFFFFFFFFFFFFFFFF MUL NOT AND SWAP1 DUP4 PUSH8 0xFFFFFFFFFFFFFFFF AND MUL OR SWAP1 SSTORE POP SWAP1 POP POP CALLER PUSH20 0xFFFFFFFFFFFFFFFFFFFFFFFFFFFFFFFFFFFFFFFF AND DUP2 PUSH32 0x13698AF37CEBD082E029181310625F4D20AA6B92123760EE2575917048F1990B DUP5 TIMESTAMP PUSH1 0x40 MLOAD PUSH2 0x714 SWAP3 SWAP2 SWAP1 PUSH2 0x118F JUMP JUMPDEST PUSH1 0x40 MLOAD DUP1 SWAP2 SUB SWAP1 LOG3 SWAP2 SWAP1 POP JUMP JUMPDEST PUSH0 PUSH1 0x1 PUSH0 DUP10 DUP2 MSTORE PUSH1 0x20 ADD SWAP1 DUP2 MSTORE PUSH1 0x20 ADD PUSH0 KECCAK256 SWAP1 POP PUSH1 0x1 PUSH1 0x3 DUP2 GT ISZERO PUSH2 0x749 JUMPI PUSH2 0x748 PUSH2 0xAD6 JUMP JUMPDEST JUMPDEST DUP2 PUSH1 0x2 ADD PUSH0 SWAP1 SLOAD SWAP1 PUSH2 0x100 EXP SWAP1 DIV PUSH1 0xFF AND PUSH1 0x3 DUP2 GT ISZERO PUSH2 0x76C JUMPI PUSH2 0x76B PUSH2 0xAD6 JUMP JUMPDEST JUMPDEST EQ PUSH2 0x7AC JUMPI PUSH1 0x40 MLOAD PUSH32 0x8C379A000000000000000000000000000000000000000000000000000000000 DUP2 MSTORE PUSH1 0x4 ADD PUSH2 0x7A3 SWAP1 PUSH2 0x1200 JUMP JUMPDEST PUSH1 0x40 MLOAD DUP1 SWAP2 SUB SWAP1 REVERT JUMPDEST PUSH1 0x2 PUSH0 DUP10 DUP2 MSTORE PUSH1 0x20 ADD SWAP1 DUP2 MSTORE PUSH1 0x20 ADD PUSH0 KECCAK256 PUSH1 0x40 MLOAD DUP1 PUSH1 0xA0 ADD PUSH1 0x40 MSTORE DUP1 DUP10 DUP10 DUP1 DUP1 PUSH1 0x1F ADD PUSH1 0x20 DUP1 SWAP2 DIV MUL PUSH1 0x20 ADD PUSH1 0x40 MLOAD SWAP1 DUP2 ADD PUSH1 0x40 MSTORE DUP1 SWAP4 SWAP3 SWAP2 SWAP1 DUP2 DUP2 MSTORE PUSH1 0x20 ADD DUP4 DUP4 DUP1 DUP3 DUP5 CALLDATACOPY PUSH0 DUP2 DUP5 ADD MSTORE PUSH1 0x1F NOT PUSH1 0x1F DUP3 ADD AND SWAP1 POP DUP1 DUP4 ADD SWAP3 POP POP POP POP POP POP POP DUP2 MSTORE PUSH1 0x20 ADD DUP8 DUP8 DUP1 DUP1 PUSH1 0x1F ADD PUSH1 0x20 DUP1 SWAP2 DIV MUL PUSH1 0x20 ADD PUSH1 0x40 MLOAD SWAP1 DUP2 ADD PUSH1 0x40 MSTORE DUP1 SWAP4 SWAP3 SWAP2 SWAP1 DUP2 DUP2 MSTORE PUSH1 0x20 ADD DUP4 DUP4 DUP1 DUP3 DUP5 CALLDATACOPY PUSH0 DUP2 DUP5 ADD MSTORE PUSH1 0x1F NOT PUSH1 0x1F DUP3 ADD AND SWAP1 POP DUP1 DUP4 ADD SWAP3 POP POP POP POP POP POP POP DUP2 MSTORE PUSH1 0x20 ADD DUP6 PUSH1 0x1 DUP2 GT ISZERO PUSH2 0x86D JUMPI PUSH2 0x86C PUSH2 0xAD6 JUMP JUMPDEST JUMPDEST DUP2 MSTORE PUSH1 0x20 ADD DUP5 DUP2 MSTORE PUSH1 0x20 ADD TIMESTAMP PUSH8 0xFFFFFFFFFFFFFFFF AND DUP2 MSTORE POP SWAP1 DUP1 PUSH1 0x1 DUP2 SLOAD ADD DUP1 DUP3 SSTORE DUP1 SWAP2 POP POP PUSH1 0x1 SWAP1 SUB SWAP1 PUSH0 MSTORE PUSH1 0x20 PUSH0 KECCAK256 SWAP1 PUSH1 0x5 MUL ADD PUSH0 SWAP1 SWAP2 SWAP1 SWAP2 SWAP1 SWAP2 POP PUSH0 DUP3 ADD MLOAD DUP2 PUSH0 ADD SWAP1 DUP2 PUSH2 0x8BF SWAP2 SWAP1 PUSH2 0x13E8 JUMP JUMPDEST POP PUSH1 0x20 DUP3 ADD MLOAD DUP2 PUSH1 0x1 ADD SWAP1 DUP2 PUSH2 0x8D5 SWAP2 SWAP1 PUSH2 0x13E8 JUMP JUMPDEST POP PUSH1 0x40 DUP3 ADD MLOAD DUP2 PUSH1 0x2 ADD PUSH0 PUSH2 0x100 EXP DUP2 SLOAD DUP2 PUSH1 0xFF MUL NOT AND SWAP1 DUP4 PUSH1 0x1 DUP2 GT ISZERO PUSH2 0x900 JUMPI PUSH2 0x8FF PUSH2 0xAD6 JUMP JUMPDEST JUMPDEST MUL OR SWAP1 SSTORE POP PUSH1 0x60 DUP3 ADD MLOAD DUP2 PUSH1 0x3 ADD SSTORE PUSH1 0x80 DUP3 ADD MLOAD DUP2 PUSH1 0x4 ADD PUSH0 PUSH2 0x100 EXP DUP2 SLOAD DUP2 PUSH8 0xFFFFFFFFFFFFFFFF MUL NOT AND SWAP1 DUP4 PUSH8 0xFFFFFFFFFFFFFFFF AND MUL OR SWAP1 SSTORE POP POP POP TIMESTAMP DUP2 PUSH1 0x2 ADD PUSH1 0x9 PUSH2 0x100 EXP DUP2 SLOAD DUP2 PUSH8 0xFFFFFFFFFFFFFFFF MUL NOT AND SWAP1 DUP4 PUSH8 0xFFFFFFFFFFFFFFFF AND MUL OR SWAP1 SSTORE POP DUP8 PUSH32 0x5950F80FFD56566E78C207D6A4AD36318342847A4303167FD0212B0D94D528D5 DUP9 DUP9 DUP9 DUP9 DUP9 DUP9 TIMESTAMP PUSH1 0x40 MLOAD PUSH2 0x9A6 SWAP8 SWAP7 SWAP6 SWAP5 SWAP4 SWAP3 SWAP2 SWAP1 PUSH2 0x1500 JUMP JUMPDEST PUSH1 0x40 MLOAD DUP1 SWAP2 SUB SWAP1 LOG2 POP POP POP POP POP POP POP POP JUMP JUMPDEST PUSH0 DUP1 REVERT JUMPDEST PUSH0 DUP1 REVERT JUMPDEST PUSH0 DUP2 SWAP1 POP SWAP2 SWAP1 POP JUMP JUMPDEST PUSH2 0x9D2 DUP2 PUSH2 0x9C0 JUMP JUMPDEST DUP2 EQ PUSH2 0x9DC JUMPI PUSH0 DUP1 REVERT JUMPDEST POP JUMP JUMPDEST PUSH0 DUP2 CALLDATALOAD SWAP1 POP PUSH2 0x9ED DUP2 PUSH2 0x9C9 JUMP JUMPDEST SWAP3 SWAP2 POP POP JUMP JUMPDEST PUSH1 0x4 DUP2 LT PUSH2 0x9FF JUMPI PUSH0 DUP1 REVERT JUMPDEST POP JUMP JUMPDEST PUSH0 DUP2 CALLDATALOAD SWAP1 POP PUSH2 0xA10 DUP2 PUSH2 0x9F3 JUMP JUMPDEST SWAP3 SWAP2 POP POP JUMP JUMPDEST PUSH0 DUP1 PUSH1 0x40 DUP4 DUP6 SUB SLT ISZERO PUSH2 0xA2C JUMPI PUSH2 0xA2B PUSH2 0x9B8 JUMP JUMPDEST JUMPDEST PUSH0 PUSH2 0xA39 DUP6 DUP3 DUP7 ADD PUSH2 0x9DF JUMP JUMPDEST SWAP3 POP POP PUSH1 0x20 PUSH2 0xA4A DUP6 DUP3 DUP7 ADD PUSH2 0xA02 JUMP JUMPDEST SWAP2 POP POP SWAP3 POP SWAP3 SWAP1 POP JUMP JUMPDEST PUSH0 PUSH1 0x20 DUP3 DUP5 SUB SLT ISZERO PUSH2 0xA69 JUMPI PUSH2 0xA68 PUSH2 0x9B8 JUMP JUMPDEST JUMPDEST PUSH0 PUSH2 0xA76 DUP5 DUP3 DUP6 ADD PUSH2 0x9DF JUMP JUMPDEST SWAP2 POP POP SWAP3 SWAP2 POP POP JUMP JUMPDEST PUSH0 PUSH20 0xFFFFFFFFFFFFFFFFFFFFFFFFFFFFFFFFFFFFFFFF DUP3 AND SWAP1 POP SWAP2 SWAP1 POP JUMP JUMPDEST PUSH0 PUSH2 0xAA8 DUP3 PUSH2 0xA7F JUMP JUMPDEST SWAP1 POP SWAP2 SWAP1 POP JUMP JUMPDEST PUSH2 0xAB8 DUP2 PUSH2 0xA9E JUMP JUMPDEST DUP3 MSTORE POP POP JUMP JUMPDEST PUSH0 DUP2 SWAP1 POP SWAP2 SWAP1 POP JUMP JUMPDEST PUSH2 0xAD0 DUP2 PUSH2 0xABE JUMP JUMPDEST DUP3 MSTORE POP POP JUMP JUMPDEST PUSH32 0x4E487B7100000000000000000000000000000000000000000000000000000000 PUSH0 MSTORE PUSH1 0x21 PUSH1 0x4 MSTORE PUSH1 0x24 PUSH0 REVERT JUMPDEST PUSH1 0x4 DUP2 LT PUSH2 0xB14 JUMPI PUSH2 0xB13 PUSH2 0xAD6 JUMP JUMPDEST JUMPDEST POP JUMP JUMPDEST PUSH0 DUP2 SWAP1 POP PUSH2 0xB24 DUP3 PUSH2 0xB03 JUMP JUMPDEST SWAP2 SWAP1 POP JUMP JUMPDEST PUSH0 PUSH2 0xB33 DUP3 PUSH2 0xB17 JUMP JUMPDEST SWAP1 POP SWAP2 SWAP1 POP JUMP JUMPDEST PUSH2 0xB43 DUP2 PUSH2 0xB29 JUMP JUMPDEST DUP3 MSTORE POP POP JUMP JUMPDEST PUSH0 PUSH8 0xFFFFFFFFFFFFFFFF DUP3 AND SWAP1 POP SWAP2 SWAP1 POP JUMP JUMPDEST PUSH2 0xB65 DUP2 PUSH2 0xB49 JUMP JUMPDEST DUP3 MSTORE POP POP JUMP JUMPDEST PUSH0 PUSH1 0xA0 DUP3 ADD SWAP1 POP PUSH2 0xB7E PUSH0 DUP4 ADD DUP9 PUSH2 0xAAF JUMP JUMPDEST PUSH2 0xB8B PUSH1 0x20 DUP4 ADD DUP8 PUSH2 0xAC7 JUMP JUMPDEST PUSH2 0xB98 PUSH1 0x40 DUP4 ADD DUP7 PUSH2 0xB3A JUMP JUMPDEST PUSH2 0xBA5 PUSH1 0x60 DUP4 ADD DUP6 PUSH2 0xB5C JUMP JUMPDEST PUSH2 0xBB2 PUSH1 0x80 DUP4 ADD DUP5 PUSH2 0xB5C JUMP JUMPDEST SWAP7 SWAP6 POP POP POP POP POP POP JUMP JUMPDEST PUSH0 DUP2 MLOAD SWAP1 POP SWAP2 SWAP1 POP JUMP JUMPDEST PUSH0 DUP3 DUP3 MSTORE PUSH1 0x20 DUP3 ADD SWAP1 POP SWAP3 SWAP2 POP POP JUMP JUMPDEST PUSH0 DUP2 SWAP1 POP PUSH1 0x20 DUP3 ADD SWAP1 POP SWAP2 SWAP1 POP JUMP JUMPDEST PUSH0 DUP2 MLOAD SWAP1 POP SWAP2 SWAP1 POP JUMP JUMPDEST PUSH0 DUP3 DUP3 MSTORE PUSH1 0x20 DUP3 ADD SWAP1 POP SWAP3 SWAP2 POP POP JUMP JUMPDEST PUSH0 JUMPDEST DUP4 DUP2 LT ISZERO PUSH2 0xC1C JUMPI DUP1 DUP3 ADD MLOAD DUP2 DUP5 ADD MSTORE PUSH1 0x20 DUP2 ADD SWAP1 POP PUSH2 0xC01 JUMP JUMPDEST PUSH0 DUP5 DUP5 ADD MSTORE POP POP POP POP JUMP JUMPDEST PUSH0 PUSH1 0x1F NOT PUSH1 0x1F DUP4 ADD AND SWAP1 POP SWAP2 SWAP1 POP JUMP JUMPDEST PUSH0 PUSH2 0xC41 DUP3 PUSH2 0xBE5 JUMP JUMPDEST PUSH2 0xC4B DUP2 DUP6 PUSH2 0xBEF JUMP JUMPDEST SWAP4 POP PUSH2 0xC5B DUP2 DUP6 PUSH1 0x20 DUP7 ADD PUSH2 0xBFF JUMP JUMPDEST PUSH2 0xC64 DUP2 PUSH2 0xC27 JUMP JUMPDEST DUP5 ADD SWAP2 POP POP SWAP3 SWAP2 POP POP JUMP JUMPDEST PUSH1 0x2 DUP2 LT PUSH2 0xC80 JUMPI PUSH2 0xC7F PUSH2 0xAD6 JUMP JUMPDEST JUMPDEST POP JUMP JUMPDEST PUSH0 DUP2 SWAP1 POP PUSH2 0xC90 DUP3 PUSH2 0xC6F JUMP JUMPDEST SWAP2 SWAP1 POP JUMP JUMPDEST PUSH0 PUSH2 0xC9F DUP3 PUSH2 0xC83 JUMP JUMPDEST SWAP1 POP SWAP2 SWAP1 POP JUMP JUMPDEST PUSH2 0xCAF DUP2 PUSH2 0xC95 JUMP JUMPDEST DUP3 MSTORE POP POP JUMP JUMPDEST PUSH2 0xCBE DUP2 PUSH2 0xABE JUMP JUMPDEST DUP3 MSTORE POP POP JUMP JUMPDEST PUSH2 0xCCD DUP2 PUSH2 0xB49 JUMP JUMPDEST DUP3 MSTORE POP POP JUMP JUMPDEST PUSH0 PUSH1 0xA0 DUP4 ADD PUSH0 DUP4 ADD MLOAD DUP5 DUP3 SUB PUSH0 DUP7 ADD MSTORE PUSH2 0xCED DUP3 DUP3 PUSH2 0xC37 JUMP JUMPDEST SWAP2 POP POP PUSH1 0x20 DUP4 ADD MLOAD DUP5 DUP3 SUB PUSH1 0x20 DUP7 ADD MSTORE PUSH2 0xD07 DUP3 DUP3 PUSH2 0xC37 JUMP JUMPDEST SWAP2 POP POP PUSH1 0x40 DUP4 ADD MLOAD PUSH2 0xD1C PUSH1 0x40 DUP7 ADD DUP3 PUSH2 0xCA6 JUMP JUMPDEST POP PUSH1 0x60 DUP4 ADD MLOAD PUSH2 0xD2F PUSH1 0x60 DUP7 ADD DUP3 PUSH2 0xCB5 JUMP JUMPDEST POP PUSH1 0x80 DUP4 ADD MLOAD PUSH2 0xD42 PUSH1 0x80 DUP7 ADD DUP3 PUSH2 0xCC4 JUMP JUMPDEST POP DUP1 SWAP2 POP POP SWAP3 SWAP2 POP POP JUMP JUMPDEST PUSH0 PUSH2 0xD58 DUP4 DUP4 PUSH2 0xCD3 JUMP JUMPDEST SWAP1 POP SWAP3 SWAP2 POP POP JUMP JUMPDEST PUSH0 PUSH1 0x20 DUP3 ADD SWAP1 POP SWAP2 SWAP1 POP JUMP JUMPDEST PUSH0 PUSH2 0xD76 DUP3 PUSH2 0xBBC JUMP JUMPDEST PUSH2 0xD80 DUP2 DUP6 PUSH2 0xBC6 JUMP JUMPDEST SWAP4 POP DUP4 PUSH1 0x20 DUP3 MUL DUP6 ADD PUSH2 0xD92 DUP6 PUSH2 0xBD6 JUMP JUMPDEST DUP1 PUSH0 JUMPDEST DUP6 DUP2 LT ISZERO PUSH2 0xDCD JUMPI DUP5 DUP5 SUB DUP10 MSTORE DUP2 MLOAD PUSH2 0xDAE DUP6 DUP3 PUSH2 0xD4D JUMP JUMPDEST SWAP5 POP PUSH2 0xDB9 DUP4 PUSH2 0xD60 JUMP JUMPDEST SWAP3 POP PUSH1 0x20 DUP11 ADD SWAP10 POP POP PUSH1 0x1 DUP2 ADD SWAP1 POP PUSH2 0xD95 JUMP JUMPDEST POP DUP3 SWAP8 POP DUP8 SWAP6 POP POP POP POP POP POP SWAP3 SWAP2 POP POP JUMP JUMPDEST PUSH0 PUSH1 0x20 DUP3 ADD SWAP1 POP DUP2 DUP2 SUB PUSH0 DUP4 ADD MSTORE PUSH2 0xDF7 DUP2 DUP5 PUSH2 0xD6C JUMP JUMPDEST SWAP1 POP SWAP3 SWAP2 POP POP JUMP JUMPDEST PUSH2 0xE08 DUP2 PUSH2 0xABE JUMP JUMPDEST DUP2 EQ PUSH2 0xE12 JUMPI PUSH0 DUP1 REVERT JUMPDEST POP JUMP JUMPDEST PUSH0 DUP2 CALLDATALOAD SWAP1 POP PUSH2 0xE23 DUP2 PUSH2 0xDFF JUMP JUMPDEST SWAP3 SWAP2 POP POP JUMP JUMPDEST PUSH0 PUSH1 0x20 DUP3 DUP5 SUB SLT ISZERO PUSH2 0xE3E JUMPI PUSH2 0xE3D PUSH2 0x9B8 JUMP JUMPDEST JUMPDEST PUSH0 PUSH2 0xE4B DUP5 DUP3 DUP6 ADD PUSH2 0xE15 JUMP JUMPDEST SWAP2 POP POP SWAP3 SWAP2 POP POP JUMP JUMPDEST PUSH2 0xE5D DUP2 PUSH2 0x9C0 JUMP JUMPDEST DUP3 MSTORE POP POP JUMP JUMPDEST PUSH0 PUSH1 0x20 DUP3 ADD SWAP1 POP PUSH2 0xE76 PUSH0 DUP4 ADD DUP5 PUSH2 0xE54 JUMP JUMPDEST SWAP3 SWAP2 POP POP JUMP JUMPDEST PUSH0 DUP1 REVERT JUMPDEST PUSH0 DUP1 REVERT JUMPDEST PUSH0 DUP1 REVERT JUMPDEST PUSH0 DUP1 DUP4 PUSH1 0x1F DUP5 ADD SLT PUSH2 0xE9D JUMPI PUSH2 0xE9C PUSH2 0xE7C JUMP JUMPDEST JUMPDEST DUP3 CALLDATALOAD SWAP1 POP PUSH8 0xFFFFFFFFFFFFFFFF DUP2 GT ISZERO PUSH2 0xEBA JUMPI PUSH2 0xEB9 PUSH2 0xE80 JUMP JUMPDEST JUMPDEST PUSH1 0x20 DUP4 ADD SWAP2 POP DUP4 PUSH1 0x1 DUP3 MUL DUP4 ADD GT ISZERO PUSH2 0xED6 JUMPI PUSH2 0xED5 PUSH2 0xE84 JUMP JUMPDEST JUMPDEST SWAP3 POP SWAP3 SWAP1 POP JUMP JUMPDEST PUSH1 0x2 DUP2 LT PUSH2 0xEE9 JUMPI PUSH0 DUP1 REVERT JUMPDEST POP JUMP JUMPDEST PUSH0 DUP2 CALLDATALOAD SWAP1 POP PUSH2 0xEFA DUP2 PUSH2 0xEDD JUMP JUMPDEST SWAP3 SWAP2 POP POP JUMP JUMPDEST PUSH0 DUP1 PUSH0 DUP1 PUSH0 DUP1 PUSH0 PUSH1 0xA0 DUP9 DUP11 SUB SLT ISZERO PUSH2 0xF1B JUMPI PUSH2 0xF1A PUSH2 0x9B8 JUMP JUMPDEST JUMPDEST PUSH0 PUSH2 0xF28 DUP11 DUP3 DUP12 ADD PUSH2 0x9DF JUMP JUMPDEST SWAP8 POP POP PUSH1 0x20 DUP9 ADD CALLDATALOAD PUSH8 0xFFFFFFFFFFFFFFFF DUP2 GT ISZERO PUSH2 0xF49 JUMPI PUSH2 0xF48 PUSH2 0x9BC JUMP JUMPDEST JUMPDEST PUSH2 0xF55 DUP11 DUP3 DUP12 ADD PUSH2 0xE88 JUMP JUMPDEST SWAP7 POP SWAP7 POP POP PUSH1 0x40 DUP9 ADD CALLDATALOAD PUSH8 0xFFFFFFFFFFFFFFFF DUP2 GT ISZERO PUSH2 0xF78 JUMPI PUSH2 0xF77 PUSH2 0x9BC JUMP JUMPDEST JUMPDEST PUSH2 0xF84 DUP11 DUP3 DUP12 ADD PUSH2 0xE88 JUMP JUMPDEST SWAP5 POP SWAP5 POP POP PUSH1 0x60 PUSH2 0xF97 DUP11 DUP3 DUP12 ADD PUSH2 0xEEC JUMP JUMPDEST SWAP3 POP POP PUSH1 0x80 PUSH2 0xFA8 DUP11 DUP3 DUP12 ADD PUSH2 0xE15 JUMP JUMPDEST SWAP2 POP POP SWAP3 SWAP6 SWAP9 SWAP2 SWAP5 SWAP8 POP SWAP3 SWAP6 POP JUMP JUMPDEST PUSH0 DUP3 DUP3 MSTORE PUSH1 0x20 DUP3 ADD SWAP1 POP SWAP3 SWAP2 POP POP JUMP JUMPDEST PUSH32 0x776F726B666C6F7720636C6F7365640000000000000000000000000000000000 PUSH0 DUP3 ADD MSTORE POP JUMP JUMPDEST PUSH0 PUSH2 0xFFB PUSH1 0xF DUP4 PUSH2 0xFB7 JUMP JUMPDEST SWAP2 POP PUSH2 0x1006 DUP3 PUSH2 0xFC7 JUMP JUMPDEST PUSH1 0x20 DUP3 ADD SWAP1 POP SWAP2 SWAP1 POP JUMP JUMPDEST PUSH0 PUSH1 0x20 DUP3 ADD SWAP1 POP DUP2 DUP2 SUB PUSH0 DUP4 ADD MSTORE PUSH2 0x1028 DUP2 PUSH2 0xFEF JUMP JUMPDEST SWAP1 POP SWAP2 SWAP1 POP JUMP JUMPDEST PUSH32 0x696E76616C69642066696E616C20737461747573000000000000000000000000 PUSH0 DUP3 ADD MSTORE POP JUMP JUMPDEST PUSH0 PUSH2 0x1063 PUSH1 0x14 DUP4 PUSH2 0xFB7 JUMP JUMPDEST SWAP2 POP PUSH2 0x106E DUP3 PUSH2 0x102F JUMP JUMPDEST PUSH1 0x20 DUP3 ADD SWAP1 POP SWAP2 SWAP1 POP JUMP JUMPDEST PUSH0 PUSH1 0x20 DUP3 ADD SWAP1 POP DUP2 DUP2 SUB PUSH0 DUP4 ADD MSTORE PUSH2 0x1090 DUP2 PUSH2 0x1057 JUMP JUMPDEST SWAP1 POP SWAP2 SWAP1 POP JUMP JUMPDEST PUSH0 PUSH1 0x40 DUP3 ADD SWAP1 POP PUSH2 0x10AA PUSH0 DUP4 ADD DUP6 PUSH2 0xB3A JUMP JUMPDEST PUSH2 0x10B7 PUSH1 0x20 DUP4 ADD DUP5 PUSH2 0xB5C JUMP JUMPDEST SWAP4 SWAP3 POP POP POP JUMP JUMPDEST PUSH32 0x4E487B7100000000000000000000000000000000000000000000000000000000 PUSH0 MSTORE PUSH1 0x22 PUSH1 0x4 MSTORE PUSH1 0x24 PUSH0 REVERT JUMPDEST PUSH0 PUSH1 0x2 DUP3 DIV SWAP1 POP PUSH1 0x1 DUP3 AND DUP1 PUSH2 0x1102 JUMPI PUSH1 0x7F DUP3 AND SWAP2 POP JUMPDEST PUSH1 0x20 DUP3 LT DUP2 SUB PUSH2 0x1115 JUMPI PUSH2 0x1114 PUSH2 0x10BE JUMP JUMPDEST JUMPDEST POP SWAP2 SWAP1 POP JUMP JUMPDEST PUSH32 0x4E487B7100000000000000000000000000000000000000000000000000000000 PUSH0 MSTORE PUSH1 0x11 PUSH1 0x4 MSTORE PUSH1 0x24 PUSH0 REVERT JUMPDEST PUSH0 PUSH2 0x1152 DUP3 PUSH2 0x9C0 JUMP JUMPDEST SWAP2 POP PUSH32 0xFFFFFFFFFFFFFFFFFFFFFFFFFFFFFFFFFFFFFFFFFFFFFFFFFFFFFFFFFFFFFFFF DUP3 SUB PUSH2 0x1184 JUMPI PUSH2 0x1183 PUSH2 0x111B JUMP JUMPDEST JUMPDEST PUSH1 0x1 DUP3 ADD SWAP1 POP SWAP2 SWAP1 POP JUMP JUMPDEST PUSH0 PUSH1 0x40 DUP3 ADD SWAP1 POP PUSH2 0x11A2 PUSH0 DUP4 ADD DUP6 PUSH2 0xAC7 JUMP JUMPDEST PUSH2 0x11AF PUSH1 0x20 DUP4 ADD DUP5 PUSH2 0xB5C JUMP JUMPDEST SWAP4 SWAP3 POP POP POP JUMP JUMPDEST PUSH32 0x776F726B666C6F77206E6F742072756E6E696E67000000000000000000000000 PUSH0 DUP3 ADD MSTORE POP JUMP JUMPDEST PUSH0 PUSH2 0x11EA PUSH1 0x14 DUP4 PUSH2 0xFB7 JUMP JUMPDEST SWAP2 POP PUSH2 0x11F5 DUP3 PUSH2 0x11B6 JUMP JUMPDEST PUSH1 0x20 DUP3 ADD SWAP1 POP SWAP2 SWAP1 POP JUMP JUMPDEST PUSH0 PUSH1 0x20 DUP3 ADD SWAP1 POP DUP2 DUP2 SUB PUSH0 DUP4 ADD MSTORE PUSH2 0x1217 DUP2 PUSH2 0x11DE JUMP JUMPDEST SWAP1 POP SWAP2 SWAP1 POP JUMP JUMPDEST PUSH32 0x4E487B7100000000000000000000000000000000000000000000000000000000 PUSH0 MSTORE PUSH1 0x41 PUSH1 0x4 MSTORE PUSH1 0x24 PUSH0 REVERT JUMPDEST PUSH0 DUP2 SWAP1 POP DUP2 PUSH0 MSTORE PUSH1 0x20 PUSH0 KECCAK256 SWAP1 POP SWAP2 SWAP1 POP JUMP JUMPDEST PUSH0 PUSH1 0x20 PUSH1 0x1F DUP4 ADD DIV SWAP1 POP SWAP2 SWAP1 POP JUMP JUMPDEST PUSH0 DUP3 DUP3 SHL SWAP1 POP SWAP3 SWAP2 POP POP JUMP JUMPDEST PUSH0 PUSH1 0x8 DUP4 MUL PUSH2 0x12A7 PUSH32 0xFFFFFFFFFFFFFFFFFFFFFFFFFFFFFFFFFFFFFFFFFFFFFFFFFFFFFFFFFFFFFFFF DUP3 PUSH2 0x126C JUMP JUMPDEST PUSH2 0x12B1 DUP7 DUP4 PUSH2 0x126C JUMP JUMPDEST SWAP6 POP DUP1 NOT DUP5 AND SWAP4 POP DUP1 DUP7 AND DUP5 OR SWAP3 POP POP POP SWAP4 SWAP3 POP POP POP JUMP JUMPDEST PUSH0 DUP2 SWAP1 POP SWAP2 SWAP1 POP JUMP JUMPDEST PUSH0 PUSH2 0x12EC PUSH2 0x12E7 PUSH2 0x12E2 DUP5 PUSH2 0x9C0 JUMP JUMPDEST PUSH2 0x12C9 JUMP JUMPDEST PUSH2 0x9C0 JUMP JUMPDEST SWAP1 POP SWAP2 SWAP1 POP JUMP JUMPDEST PUSH0 DUP2 SWAP1 POP SWAP2 SWAP1 POP JUMP JUMPDEST PUSH2 0x1305 DUP4 PUSH2 0x12D2 JUMP JUMPDEST PUSH2 0x1319 PUSH2 0x1311 DUP3 PUSH2 0x12F3 JUMP JUMPDEST DUP5 DUP5 SLOAD PUSH2 0x1278 JUMP JUMPDEST DUP3 SSTORE POP POP POP POP JUMP JUMPDEST PUSH0 SWAP1 JUMP JUMPDEST PUSH2 0x132D PUSH2 0x1321 JUMP JUMPDEST PUSH2 0x1338 DUP2 DUP5 DUP5 PUSH2 0x12FC JUMP JUMPDEST POP POP POP JUMP JUMPDEST JUMPDEST DUP2 DUP2 LT ISZERO PUSH2 0x135B JUMPI PUSH2 0x1350 PUSH0 DUP3 PUSH2 0x1325 JUMP JUMPDEST PUSH1 0x1 DUP2 ADD SWAP1 POP PUSH2 0x133E JUMP JUMPDEST POP POP JUMP JUMPDEST PUSH1 0x1F DUP3 GT ISZERO PUSH2 0x13A0 JUMPI PUSH2 0x1371 DUP2 PUSH2 0x124B JUMP JUMPDEST PUSH2 0x137A DUP5 PUSH2 0x125D JUMP JUMPDEST DUP2 ADD PUSH1 0x20 DUP6 LT ISZERO PUSH2 0x1389 JUMPI DUP2 SWAP1 POP JUMPDEST PUSH2 0x139D PUSH2 0x1395 DUP6 PUSH2 0x125D JUMP JUMPDEST DUP4 ADD DUP3 PUSH2 0x133D JUMP JUMPDEST POP POP JUMPDEST POP POP POP JUMP JUMPDEST PUSH0 DUP3 DUP3 SHR SWAP1 POP SWAP3 SWAP2 POP POP JUMP JUMPDEST PUSH0 PUSH2 0x13C0 PUSH0 NOT DUP5 PUSH1 0x8 MUL PUSH2 0x13A5 JUMP JUMPDEST NOT DUP1 DUP4 AND SWAP2 POP POP SWAP3 SWAP2 POP POP JUMP JUMPDEST PUSH0 PUSH2 0x13D8 DUP4 DUP4 PUSH2 0x13B1 JUMP JUMPDEST SWAP2 POP DUP3 PUSH1 0x2 MUL DUP3 OR SWAP1 POP SWAP3 SWAP2 POP POP JUMP JUMPDEST PUSH2 0x13F1 DUP3 PUSH2 0xBE5 JUMP JUMPDEST PUSH8 0xFFFFFFFFFFFFFFFF DUP2 GT ISZERO PUSH2 0x140A JUMPI PUSH2 0x1409 PUSH2 0x121E JUMP JUMPDEST JUMPDEST PUSH2 0x1414 DUP3 SLOAD PUSH2 0x10EB JUMP JUMPDEST PUSH2 0x141F DUP3 DUP3 DUP6 PUSH2 0x135F JUMP JUMPDEST PUSH0 PUSH1 0x20 SWAP1 POP PUSH1 0x1F DUP4 GT PUSH1 0x1 DUP2 EQ PUSH2 0x1450 JUMPI PUSH0 DUP5 ISZERO PUSH2 0x143E JUMPI DUP3 DUP8 ADD MLOAD SWAP1 POP JUMPDEST PUSH2 0x1448 DUP6 DUP3 PUSH2 0x13CD JUMP JUMPDEST DUP7 SSTORE POP PUSH2 0x14AF JUMP JUMPDEST PUSH1 0x1F NOT DUP5 AND PUSH2 0x145E DUP7 PUSH2 0x124B JUMP JUMPDEST PUSH0 JUMPDEST DUP3 DUP2 LT ISZERO PUSH2 0x1485 JUMPI DUP5 DUP10 ADD MLOAD DUP3 SSTORE PUSH1 0x1 DUP3 ADD SWAP2 POP PUSH1 0x20 DUP6 ADD SWAP5 POP PUSH1 0x20 DUP2 ADD SWAP1 POP PUSH2 0x1460 JUMP JUMPDEST DUP7 DUP4 LT ISZERO PUSH2 0x14A2 JUMPI DUP5 DUP10 ADD MLOAD PUSH2 0x149E PUSH1 0x1F DUP10 AND DUP3 PUSH2 0x13B1 JUMP JUMPDEST DUP4 SSTORE POP JUMPDEST PUSH1 0x1 PUSH1 0x2 DUP9 MUL ADD DUP9 SSTORE POP POP POP JUMPDEST POP POP POP POP POP POP JUMP JUMPDEST DUP3 DUP2 DUP4 CALLDATACOPY PUSH0 DUP4 DUP4 ADD MSTORE POP POP POP JUMP JUMPDEST PUSH0 PUSH2 0x14D0 DUP4 DUP6 PUSH2 0xFB7 JUMP JUMPDEST SWAP4 POP PUSH2 0x14DD DUP4 DUP6 DUP5 PUSH2 0x14B7 JUMP JUMPDEST PUSH2 0x14E6 DUP4 PUSH2 0xC27 JUMP JUMPDEST DUP5 ADD SWAP1 POP SWAP4 SWAP3 POP POP POP JUMP JUMPDEST PUSH2 0x14FA DUP2 PUSH2 0xC95 JUMP JUMPDEST DUP3 MSTORE POP POP JUMP JUMPDEST PUSH0 PUSH1 0xA0 DUP3 ADD SWAP1 POP DUP2 DUP2 SUB PUSH0 DUP4 ADD MSTORE PUSH2 0x1519 DUP2 DUP10 DUP12 PUSH2 0x14C5 JUMP JUMPDEST SWAP1 POP DUP2 DUP2 SUB PUSH1 0x20 DUP4 ADD MSTORE PUSH2 0x152E DUP2 DUP8 DUP10 PUSH2 0x14C5 JUMP JUMPDEST SWAP1 POP PUSH2 0x153D PUSH1 0x40 DUP4 ADD DUP7 PUSH2 0x14F1 JUMP JUMPDEST PUSH2 0x154A PUSH1 0x60 DUP4 ADD DUP6 PUSH2 0xAC7 JUMP JUMPDEST PUSH2 0x1557 PUSH1 0x80 DUP4 ADD DUP5 PUSH2 0xB5C JUMP JUMPDEST SWAP9 SWAP8 POP POP POP POP POP POP POP POP JUMP INVALID LOG2 PUSH5 0x6970667358 0x22 SLT KECCAK256 0x4B 0xBC SWAP9 LOG4 RETURNDATACOPY 0xD9 0xB2 BALANCE 0xA8 0xCA 0xE2 PUSH31 0x2817719A592C57CAC7F9FB2614AAABB16111984E64736F6C63430008140033 "},"methodIdentifiers":{"createWorkflow(bytes32)":"afe3aed2","finalizeWorkflow(uint256,uint8)":"3ed1ddd7","getStepLogs(uint256)":"a831d4e9","recordStep(uint256,string,string,uint8,bytes32)":"f9851a5e","workflows(uint256)":"96a7bfcf"}}}}}